{
  "contractName": "RealEstateBid",
  "abi": [
    {
      "inputs": [
        {
          "internalType": "address payable",
          "name": "beneficiaryAddress",
          "type": "address"
        },
        {
          "internalType": "string",
          "name": "realEstate",
          "type": "string"
        },
        {
          "internalType": "uint256",
          "name": "baseBid",
          "type": "uint256"
        }
      ],
      "stateMutability": "nonpayable",
      "type": "constructor"
    },
    {
      "inputs": [],
      "name": "AuctionEndAlreadyCalled",
      "type": "error"
    },
    {
      "inputs": [],
      "name": "NoAccess",
      "type": "error"
    },
    {
      "inputs": [],
      "name": "RevealPhaseNotActive",
      "type": "error"
    },
    {
      "inputs": [],
      "name": "TooEarly",
      "type": "error"
    },
    {
      "inputs": [],
      "name": "TooLate",
      "type": "error"
    },
    {
      "anonymous": false,
      "inputs": [
        {
          "indexed": false,
          "internalType": "address",
          "name": "winner",
          "type": "address"
        },
        {
          "indexed": false,
          "internalType": "uint256",
          "name": "highestBid",
          "type": "uint256"
        }
      ],
      "name": "AuctionEnded",
      "type": "event"
    },
    {
      "inputs": [
        {
          "internalType": "address",
          "name": "",
          "type": "address"
        },
        {
          "internalType": "uint256",
          "name": "",
          "type": "uint256"
        }
      ],
      "name": "failedBids",
      "outputs": [
        {
          "internalType": "address",
          "name": "bidderAddress",
          "type": "address"
        },
        {
          "internalType": "bytes32",
          "name": "blindedBind",
          "type": "bytes32"
        },
        {
          "internalType": "uint256",
          "name": "deposit",
          "type": "uint256"
        }
      ],
      "stateMutability": "view",
      "type": "function",
      "constant": true
    },
    {
      "inputs": [],
      "name": "highestBid",
      "outputs": [
        {
          "internalType": "address",
          "name": "bidderAddress",
          "type": "address"
        },
        {
          "internalType": "uint256",
          "name": "bid",
          "type": "uint256"
        },
        {
          "internalType": "uint256",
          "name": "deposit",
          "type": "uint256"
        },
        {
          "internalType": "bool",
          "name": "valid",
          "type": "bool"
        }
      ],
      "stateMutability": "view",
      "type": "function",
      "constant": true
    },
    {
      "inputs": [
        {
          "internalType": "bytes32",
          "name": "blindedBind",
          "type": "bytes32"
        }
      ],
      "name": "bid",
      "outputs": [],
      "stateMutability": "payable",
      "type": "function",
      "payable": true
    },
    {
      "inputs": [
        {
          "internalType": "uint256",
          "name": "value",
          "type": "uint256"
        },
        {
          "internalType": "string",
          "name": "secret",
          "type": "string"
        }
      ],
      "name": "reveal",
      "outputs": [],
      "stateMutability": "payable",
      "type": "function",
      "payable": true
    },
    {
      "inputs": [],
      "name": "auctionEnd",
      "outputs": [],
      "stateMutability": "payable",
      "type": "function",
      "payable": true
    },
    {
      "inputs": [],
      "name": "bidEnd",
      "outputs": [],
      "stateMutability": "nonpayable",
      "type": "function"
    },
    {
      "inputs": [],
      "name": "getBeneficaryAddress",
      "outputs": [
        {
          "internalType": "address",
          "name": "",
          "type": "address"
        }
      ],
      "stateMutability": "view",
      "type": "function",
      "constant": true
    },
    {
      "inputs": [],
      "name": "getRealEstateAddress",
      "outputs": [
        {
          "internalType": "string",
          "name": "",
          "type": "string"
        }
      ],
      "stateMutability": "view",
      "type": "function",
      "constant": true
    },
    {
      "inputs": [],
      "name": "getMinBid",
      "outputs": [
        {
          "internalType": "uint256",
          "name": "",
          "type": "uint256"
        }
      ],
      "stateMutability": "view",
      "type": "function",
      "constant": true
    }
  ],
  "bytecode": "0x60806040523480156200001157600080fd5b5060405162000c4038038062000c4083398101604081905262000034916200013c565b600080546001600160a01b0319166001600160a01b03851617905581516200006490600290602085019062000080565b506003805461ffff191661010117905560015550620002829050565b8280546200008e9062000245565b90600052602060002090601f016020900481019282620000b25760008555620000fd565b82601f10620000cd57805160ff1916838001178555620000fd565b82800160010185558215620000fd579182015b82811115620000fd578251825591602001919060010190620000e0565b506200010b9291506200010f565b5090565b5b808211156200010b576000815560010162000110565b634e487b7160e01b600052604160045260246000fd5b6000806000606084860312156200015257600080fd5b83516001600160a01b03811681146200016a57600080fd5b602085810151919450906001600160401b03808211156200018a57600080fd5b818701915087601f8301126200019f57600080fd5b815181811115620001b457620001b462000126565b604051601f8201601f19908116603f01168101908382118183101715620001df57620001df62000126565b816040528281528a86848701011115620001f857600080fd5b600093505b828410156200021c5784840186015181850187015292850192620001fd565b828411156200022e5760008684830101525b809750505050505050604084015190509250925092565b600181811c908216806200025a57607f821691505b602082108114156200027c57634e487b7160e01b600052602260045260246000fd5b50919050565b6109ae80620002926000396000f3fe6080604052600436106100865760003560e01c80638cb39385116100595780638cb39385146100ea578063957bb1e014610108578063c8f5b8f91461011b578063d57bde791461013d578063ea0156521461019857600080fd5b80632a24f46c1461008b5780632cf8d127146100955780632fa4548b146100aa5780635d4790ec146100bd575b600080fd5b6100936101dd565b005b3480156100a157600080fd5b50610093610388565b6100936100b83660046107c2565b6103bf565b3480156100c957600080fd5b506000546040516001600160a01b0390911681526020015b60405180910390f35b3480156100f657600080fd5b506001546040519081526020016100e1565b61009361011636600461083e565b610549565b34801561012757600080fd5b506101306105f9565b6040516100e19190610857565b34801561014957600080fd5b5060065460075460085460095461016c936001600160a01b031692919060ff1684565b604080516001600160a01b039095168552602085019390935291830152151560608201526080016100e1565b3480156101a457600080fd5b506101b86101b33660046108ac565b61068b565b604080516001600160a01b0390941684526020840192909252908201526060016100e1565b6000546001600160a01b031633146102085760405163160d3af160e11b815260040160405180910390fd5b60035460ff161515600114806102265750600354610100900460ff16155b15610244576040516313f10bb360e01b815260040160405180910390fd5b600654600754604080516001600160a01b03909316835260208301919091527fdaec4582d5d9595688c8c98545fdd1c696d41c6aeaeb636737e84ed2f5c00eda910160405180910390a16003805461ff0019169055600080546001600160a01b0316815260056020526040812054905b8181101561034857600080546001600160a01b031681526005602052604081208054839081106102e6576102e66108e4565b600091825260208220600390910201805460028201546040519294506001600160a01b039091169281156108fc029290818181858888f19350505050158015610333573d6000803e3d6000fd5b50508080610340906108fa565b9150506102b4565b50600080546008546040516001600160a01b039092169281156108fc029290818181858888f19350505050158015610384573d6000803e3d6000fd5b5050565b6000546001600160a01b031633146103b35760405163160d3af160e11b815260040160405180910390fd5b6003805460ff19169055565b60035460ff161515600114806103dd5750600354610100900460ff16155b156103fb576040516313f10bb360e01b815260040160405180910390fd5b600080546001600160a01b0316815260046020526040812054905b8181101561054257600080546001600160a01b03168152600460205260408120805483908110610448576104486108e4565b6000918252602090912060039091020180549091506001600160a01b0316331480156104a1575085858560405160200161048493929190610923565b604051602081830303815290604052805190602001208160010154145b1561052f576104b081876106d7565b61052f57600080546001600160a01b0390811682526005602090815260408084208151606081018352865485168152808401868152600280890154948301948552835460018082018655948952959097209151600390950290910180546001600160a01b03191694909516939093178455915191830191909155519101555b508061053a816108fa565b915050610416565b5050505050565b60035460ff1661056c5760405163ecdd1c2960e01b815260040160405180910390fd5b670de0b6b3a764000034101561058157600080fd5b600080546001600160a01b039081168252600460209081526040808420815160608101835233815280840196875234928101928352815460018082018455928752939095209451600390930290940180546001600160a01b031916929093169190911782559251918101919091559051600290910155565b6060600280546106089061093d565b80601f01602080910402602001604051908101604052809291908181526020018280546106349061093d565b80156106815780601f1061065657610100808354040283529160200191610681565b820191906000526020600020905b81548152906001019060200180831161066457829003601f168201915b5050505050905090565b600560205281600052604060002081815481106106a757600080fd5b60009182526020909120600390910201805460018201546002909201546001600160a01b03909116935090915083565b600754600090821115806106ec575060015482105b156106f9575060006107bc565b60095460ff161561077c57600080546001600160a01b03908116825260056020908152604080842081516060810183526006548516815280840186815260085493820193845282546001808201855593885294909620905160039094020180546001600160a01b0319169390941692909217835592519082015590516002909101555b5060078190558154600680546001600160a01b0319166001600160a01b0390921691909117905560028201546008556009805460ff191660019081179091555b92915050565b6000806000604084860312156107d757600080fd5b83359250602084013567ffffffffffffffff808211156107f657600080fd5b818601915086601f83011261080a57600080fd5b81358181111561081957600080fd5b87602082850101111561082b57600080fd5b6020830194508093505050509250925092565b60006020828403121561085057600080fd5b5035919050565b600060208083528351808285015260005b8181101561088457858101830151858201604001528201610868565b81811115610896576000604083870101525b50601f01601f1916929092016040019392505050565b600080604083850312156108bf57600080fd5b82356001600160a01b03811681146108d657600080fd5b946020939093013593505050565b634e487b7160e01b600052603260045260246000fd5b600060001982141561091c57634e487b7160e01b600052601160045260246000fd5b5060010190565b838152818360208301376000910160200190815292915050565b600181811c9082168061095157607f821691505b6020821081141561097257634e487b7160e01b600052602260045260246000fd5b5091905056fea2646970667358221220c989e6ffcc3d935be4b5ae6d452d15e703b11fca6801c9635d3d10bad0992cad64736f6c634300080c0033",
  "immutableReferences": {},
  "source": "    // SPDX-License-Identifier: GPL-3.0\n\n    pragma solidity ^0.8.0;\n\n    contract RealEstateBid{\n\n        //Blind bid construct\n        struct Bid{\n            address bidderAddress;\n            bytes32 blindedBind;\n            uint deposit;\n        }\n\n        //Revealed bid construct\n        struct NakedBid{\n            address bidderAddress;\n            uint bid;\n            uint deposit;\n            bool valid;\n        }\n\n        address payable private _beneficiary;\n        uint private _minBid;\n        string private _realEstateAddress;\n        bool private _bidActive;\n        bool private _auctionActive;\n\n        //Secret Bids\n        mapping(address => Bid[]) private _bids;\n        //Bids to refund\n        mapping(address => Bid[]) public failedBids;\n        //highest bid\n        NakedBid public highestBid;\n\n        constructor(address payable beneficiaryAddress, string memory realEstate, uint baseBid) {\n            _beneficiary = beneficiaryAddress;\n            _realEstateAddress = realEstate;\n            _bidActive = true;\n            _auctionActive = true;\n            _minBid = baseBid;\n        }\n\n        modifier beneficiaryOnly() {\n            if (msg.sender != _beneficiary) revert NoAccess();\n            _;\n        }\n\n       modifier onlyActiveBid() {\n        \n            if (_bidActive == false) revert TooLate();\n            _;\n        }\n\n        modifier onlyReveal() {\n        \n            if (_bidActive == true || _auctionActive == false) revert RevealPhaseNotActive();\n            _;\n        }\n\n\n        event AuctionEnded(address winner, uint highestBid);\n\n        error NoAccess();\n        error TooEarly();\n        error TooLate();\n        error AuctionEndAlreadyCalled();\n        error RevealPhaseNotActive();\n    \n\n    //Blind bid, requires a minimum deposit of 1 eth\n    function bid(bytes32 blindedBind) external payable onlyActiveBid()\n        {\n         require (msg.value >= 1 ether);\n\n            _bids[_beneficiary].push(Bid({\n                bidderAddress: msg.sender,\n                blindedBind: blindedBind,\n                deposit: msg.value\n            }));\n\n        \n        }\n\n    //Reveal blind bid\n    //The secret should match the secret used to create the blind bid\n    function reveal(uint value, string calldata secret) external payable onlyReveal()\n        {\n            uint length = _bids[_beneficiary].length;\n\n            for (uint i = 0; i < length; i++) {\n                Bid storage bidToCheck = _bids[_beneficiary][i];\n\n                if (msg.sender == bidToCheck.bidderAddress && bidToCheck.blindedBind== keccak256(abi.encodePacked(value, secret))) {\n                    if(placeBid(bidToCheck, value) == false){\n\n                        failedBids[_beneficiary].push(Bid({\n                            bidderAddress: bidToCheck.bidderAddress,\n                            blindedBind: bytes32(0),\n                            deposit: bidToCheck.deposit\n                            }));\n\n                    }             \n    \n                }\n    \n            }\n            \n        }\n\n    //Place bid\n    function placeBid(Bid storage bidToCheck, uint value) internal returns (bool success)             \n        {\n            if (value <= highestBid.bid || value < _minBid) {\n                return false;\n            }\n\n            if (highestBid.valid) {\n                failedBids[_beneficiary].push(Bid({\n                bidderAddress: highestBid.bidderAddress,\n                blindedBind: bytes32(0),\n                deposit: highestBid.deposit\n            }));\n            }\n            highestBid.bid = value;\n            highestBid.bidderAddress = bidToCheck.bidderAddress;\n            highestBid.deposit = bidToCheck.deposit;\n            highestBid.valid = true;\n\n            return true;\n        }\n\n        // End auction\n        // Pay deposit to beneficiary\n        // Pay deposit back to losing bid participants\n        function auctionEnd() public payable beneficiaryOnly() onlyReveal()  \n        {\n            //if (ended) revert AuctionEndAlreadyCalled();\n            emit AuctionEnded(highestBid.bidderAddress, highestBid.bid);\n            _auctionActive = false;\n\n            uint length = failedBids[_beneficiary].length;\n            for (uint i = 0; i < length; i++) {\n                Bid storage failedBid = failedBids[_beneficiary][i];\n                payable(failedBid.bidderAddress).transfer(failedBid.deposit);\n            }\n\n            payable(_beneficiary).transfer(highestBid.deposit);\n\n        }\n\n        function bidEnd() public beneficiaryOnly() {\n            _bidActive = false;\n        }\n\n        function getBeneficaryAddress() public view returns (address) {\n            return _beneficiary;\n        }\n\n        function getRealEstateAddress() public view returns (string memory) {\n            return _realEstateAddress;\n        }\n\n        function getMinBid() public view returns (uint) {\n            return _minBid;\n        }\n\n    }\n",
  "sourcePath": "/Users/sharadgulati/Projects/ethereum/realEstateBid/contracts/RealEstateBid.sol",
  "compiler": {
    "name": "solc",
    "version": "0.8.12+commit.f00d7308.Emscripten.clang"
  },
  "schemaVersion": "3.4.5",
  "updatedAt": "2022-03-23T02:58:41.169Z",
  "networkType": "ethereum",
  "devdoc": {
    "kind": "dev",
    "methods": {},
    "version": 1
  },
  "userdoc": {
    "kind": "user",
    "methods": {},
    "version": 1
  }
}